{
  "_format": "hh-sol-artifact-1",
  "contractName": "Diamond",
  "sourceName": "src/Diamond.sol",
  "abi": [
    {
      "inputs": [
        {
          "internalType": "address",
          "name": "_contractOwner",
          "type": "address"
        }
      ],
      "stateMutability": "payable",
      "type": "constructor"
    },
    {
      "anonymous": false,
      "inputs": [
        {
          "components": [
            {
              "internalType": "address",
              "name": "facetAddress",
              "type": "address"
            },
            {
              "internalType": "bytes4[]",
              "name": "functionSelectors",
              "type": "bytes4[]"
            }
          ],
          "indexed": false,
          "internalType": "struct LibDiamond.FacetCut",
          "name": "_diamondCut",
          "type": "tuple"
        }
      ],
      "name": "DiamondCut",
      "type": "event"
    },
    {
      "anonymous": false,
      "inputs": [
        {
          "indexed": true,
          "internalType": "address",
          "name": "previousOwner",
          "type": "address"
        },
        {
          "indexed": true,
          "internalType": "address",
          "name": "newOwner",
          "type": "address"
        }
      ],
      "name": "OwnershipTransferred",
      "type": "event"
    },
    {
      "stateMutability": "payable",
      "type": "fallback"
    },
    {
      "inputs": [
        {
          "internalType": "address",
          "name": "facetAddress",
          "type": "address"
        },
        {
          "internalType": "bytes4[]",
          "name": "functionSelectors",
          "type": "bytes4[]"
        }
      ],
      "name": "addFunctions",
      "outputs": [],
      "stateMutability": "nonpayable",
      "type": "function"
    },
    {
      "inputs": [
        {
          "components": [
            {
              "internalType": "address",
              "name": "facetAddress",
              "type": "address"
            },
            {
              "internalType": "bytes4[]",
              "name": "functionSelectors",
              "type": "bytes4[]"
            }
          ],
          "internalType": "struct LibDiamond.FacetCut",
          "name": "_diamondCut",
          "type": "tuple"
        }
      ],
      "name": "diamondCut",
      "outputs": [],
      "stateMutability": "nonpayable",
      "type": "function"
    },
    {
      "inputs": [],
      "name": "getOwner",
      "outputs": [
        {
          "internalType": "address",
          "name": "",
          "type": "address"
        }
      ],
      "stateMutability": "view",
      "type": "function"
    },
    {
      "inputs": [
        {
          "internalType": "address",
          "name": "facetAddress",
          "type": "address"
        },
        {
          "internalType": "bytes4[]",
          "name": "selectors",
          "type": "bytes4[]"
        }
      ],
      "name": "removeFunctions",
      "outputs": [],
      "stateMutability": "nonpayable",
      "type": "function"
    },
    {
      "stateMutability": "payable",
      "type": "receive"
    }
  ],
  "bytecode": "0x6080604052604051620024af380380620024af8339818101604052810190620000299190620001b7565b6200003a816200004160201b60201c565b50620001e9565b6000620000536200012060201b60201c565b905060008160030160009054906101000a900473ffffffffffffffffffffffffffffffffffffffff169050828260030160006101000a81548173ffffffffffffffffffffffffffffffffffffffff021916908373ffffffffffffffffffffffffffffffffffffffff1602179055508273ffffffffffffffffffffffffffffffffffffffff168173ffffffffffffffffffffffffffffffffffffffff167f8be0079c531659141344cd1fd0a4f28419497f9722a3daafe3b4186f6b6457e060405160405180910390a3505050565b6000807fc8fcad8db84d3cc18b4c41d551ea0ee66dd599cde068d998e57d5e09332c131c90508091505090565b600080fd5b600073ffffffffffffffffffffffffffffffffffffffff82169050919050565b60006200017f8262000152565b9050919050565b620001918162000172565b81146200019d57600080fd5b50565b600081519050620001b18162000186565b92915050565b600060208284031215620001d057620001cf6200014d565b5b6000620001e084828501620001a0565b91505092915050565b6122b680620001f96000396000f3fe6080604052600436106100435760003560e01c806332d0daf01461018957806365907831146101b2578063893d20e8146101db578063f203661a146102065761004a565b3661004a57005b600061005461022f565b9050600081600001600080357fffffffff00000000000000000000000000000000000000000000000000000000167bffffffffffffffffffffffffffffffffffffffffffffffffffffffff19167bffffffffffffffffffffffffffffffffffffffffffffffffffffffff1916815260200190815260200160002060000160009054906101000a900473ffffffffffffffffffffffffffffffffffffffff169050600073ffffffffffffffffffffffffffffffffffffffff168173ffffffffffffffffffffffffffffffffffffffff1603610163576040517f08c379a000000000000000000000000000000000000000000000000000000000815260040161015a90611696565b60405180910390fd5b3660008037600080366000845af43d6000803e8060008114610184573d6000f35b3d6000fd5b34801561019557600080fd5b506101b060048036038101906101ab91906118d9565b61025c565b005b3480156101be57600080fd5b506101d960048036038101906101d49190611959565b610272565b005b3480156101e757600080fd5b506101f0610286565b6040516101fd91906119b1565b60405180910390f35b34801561021257600080fd5b5061022d600480360381019061022891906118d9565b6102b9565b005b6000807fc8fcad8db84d3cc18b4c41d551ea0ee66dd599cde068d998e57d5e09332c131c90508091505090565b6102646102cf565b61026e828261034d565b5050565b61027a6102cf565b6102838161082a565b50565b600061029061022f565b60030160009054906101000a900473ffffffffffffffffffffffffffffffffffffffff16905090565b6102c16102cf565b6102cb8282610dac565b5050565b6102d7610f36565b73ffffffffffffffffffffffffffffffffffffffff166102f5610f69565b73ffffffffffffffffffffffffffffffffffffffff161461034b576040517f08c379a000000000000000000000000000000000000000000000000000000000815260040161034290611a3e565b60405180910390fd5b565b6000815111610391576040517f08c379a000000000000000000000000000000000000000000000000000000000815260040161038890611ad0565b60405180910390fd5b600061039b61022f565b9050600073ffffffffffffffffffffffffffffffffffffffff168373ffffffffffffffffffffffffffffffffffffffff160361040c576040517f08c379a000000000000000000000000000000000000000000000000000000000815260040161040390611b62565b60405180910390fd5b60008160010160008573ffffffffffffffffffffffffffffffffffffffff1673ffffffffffffffffffffffffffffffffffffffff16815260200190815260200160002060000180549050905060008161ffff1603610540576104868460405180606001604052806024815260200161225d60249139610f71565b816002018054905061ffff168260010160008673ffffffffffffffffffffffffffffffffffffffff1673ffffffffffffffffffffffffffffffffffffffff1681526020019081526020016000206001018190555081600201849080600181540180825580915050600190039060005260206000200160009091909190916101000a81548173ffffffffffffffffffffffffffffffffffffffff021916908373ffffffffffffffffffffffffffffffffffffffff1602179055505b60005b835181101561082357600084828151811061056157610560611b82565b5b602002602001015190506000846000016000837bffffffffffffffffffffffffffffffffffffffffffffffffffffffff19167bffffffffffffffffffffffffffffffffffffffffffffffffffffffff1916815260200190815260200160002060000160009054906101000a900473ffffffffffffffffffffffffffffffffffffffff169050600073ffffffffffffffffffffffffffffffffffffffff168173ffffffffffffffffffffffffffffffffffffffff1614610655576040517f08c379a000000000000000000000000000000000000000000000000000000000815260040161064c90611c23565b60405180910390fd5b8460010160008873ffffffffffffffffffffffffffffffffffffffff1673ffffffffffffffffffffffffffffffffffffffff1681526020019081526020016000206000018290806001815401808255809150506001900390600052602060002090600891828204019190066004029091909190916101000a81548163ffffffff021916908360e01c021790555086856000016000847bffffffffffffffffffffffffffffffffffffffffffffffffffffffff19167bffffffffffffffffffffffffffffffffffffffffffffffffffffffff1916815260200190815260200160002060000160006101000a81548173ffffffffffffffffffffffffffffffffffffffff021916908373ffffffffffffffffffffffffffffffffffffffff1602179055508361ffff16856000016000847bffffffffffffffffffffffffffffffffffffffffffffffffffffffff19167bffffffffffffffffffffffffffffffffffffffffffffffffffffffff1916815260200190815260200160002060000160146101000a8154816bffffffffffffffffffffffff02191690836bffffffffffffffffffffffff160217905550838061080b90611c80565b9450505050808061081b90611cb4565b915050610543565b5050505050565b600081600001602081019061083f9190611cfc565b905060008280602001906108539190611d38565b80806020026020016040519081016040528093929190818152602001838360200280828437600081840152601f19601f82011690508083019250505050505050905060008151116108d9576040517f08c379a00000000000000000000000000000000000000000000000000000000081526004016108d090611ad0565b60405180910390fd5b600073ffffffffffffffffffffffffffffffffffffffff168273ffffffffffffffffffffffffffffffffffffffff1603610948576040517f08c379a000000000000000000000000000000000000000000000000000000000815260040161093f90611b62565b60405180910390fd5b600061095261022f565b905060008160010160008573ffffffffffffffffffffffffffffffffffffffff1673ffffffffffffffffffffffffffffffffffffffff1681526020019081526020016000206000018054905090506000816bffffffffffffffffffffffff1603610a8e576109d88460405180606001604052806024815260200161225d60249139610f71565b81600201805490508260010160008673ffffffffffffffffffffffffffffffffffffffff1673ffffffffffffffffffffffffffffffffffffffff1681526020019081526020016000206001018190555081600201849080600181540180825580915050600190039060005260206000200160009091909190916101000a81548173ffffffffffffffffffffffffffffffffffffffff021916908373ffffffffffffffffffffffffffffffffffffffff1602179055505b60005b8351811015610d6d576000848281518110610aaf57610aae611b82565b5b602002602001015190506000846000016000837bffffffffffffffffffffffffffffffffffffffffffffffffffffffff19167bffffffffffffffffffffffffffffffffffffffffffffffffffffffff1916815260200190815260200160002060000160009054906101000a900473ffffffffffffffffffffffffffffffffffffffff169050600073ffffffffffffffffffffffffffffffffffffffff168173ffffffffffffffffffffffffffffffffffffffff1614610ba3576040517f08c379a0000000000000000000000000000000000000000000000000000000008152600401610b9a90611c23565b60405180910390fd5b83856000016000847bffffffffffffffffffffffffffffffffffffffffffffffffffffffff19167bffffffffffffffffffffffffffffffffffffffffffffffffffffffff1916815260200190815260200160002060000160146101000a8154816bffffffffffffffffffffffff02191690836bffffffffffffffffffffffff16021790555086856000016000847bffffffffffffffffffffffffffffffffffffffffffffffffffffffff19167bffffffffffffffffffffffffffffffffffffffffffffffffffffffff1916815260200190815260200160002060000160006101000a81548173ffffffffffffffffffffffffffffffffffffffff021916908373ffffffffffffffffffffffffffffffffffffffff1602179055508460010160008873ffffffffffffffffffffffffffffffffffffffff1673ffffffffffffffffffffffffffffffffffffffff1681526020019081526020016000206000018290806001815401808255809150506001900390600052602060002090600891828204019190066004029091909190916101000a81548163ffffffff021916908360e01c02179055508380610d5590611db3565b94505050508080610d6590611cb4565b915050610a91565b507f870a27c741d6bfa35424e9edf793d7d7b000dc66c0dae57ddac33cdde585b5bb85604051610d9d9190611f91565b60405180910390a15050505050565b6000815111610df0576040517f08c379a0000000000000000000000000000000000000000000000000000000008152600401610de790611ad0565b60405180910390fd5b6000610dfa61022f565b9050600073ffffffffffffffffffffffffffffffffffffffff168373ffffffffffffffffffffffffffffffffffffffff1614610e6b576040517f08c379a0000000000000000000000000000000000000000000000000000000008152600401610e6290612025565b60405180910390fd5b60005b8251811015610f30576000838281518110610e8c57610e8b611b82565b5b602002602001015190506000836000016000837bffffffffffffffffffffffffffffffffffffffffffffffffffffffff19167bffffffffffffffffffffffffffffffffffffffffffffffffffffffff1916815260200190815260200160002060000160009054906101000a900473ffffffffffffffffffffffffffffffffffffffff169050610f1b8183610fc3565b50508080610f2890611cb4565b915050610e6e565b50505050565b6000610f4061022f565b60030160009054906101000a900473ffffffffffffffffffffffffffffffffffffffff16905090565b600033905090565b6000823b9050600081118290610fbd576040517f08c379a0000000000000000000000000000000000000000000000000000000008152600401610fb491906120b3565b60405180910390fd5b50505050565b6000610fcd61022f565b9050600073ffffffffffffffffffffffffffffffffffffffff168373ffffffffffffffffffffffffffffffffffffffff160361103e576040517f08c379a000000000000000000000000000000000000000000000000000000000815260040161103590612147565b60405180910390fd5b3073ffffffffffffffffffffffffffffffffffffffff168373ffffffffffffffffffffffffffffffffffffffff16036110ac576040517f08c379a00000000000000000000000000000000000000000000000000000000081526004016110a3906121d9565b60405180910390fd5b6000816000016000847bffffffffffffffffffffffffffffffffffffffffffffffffffffffff19167bffffffffffffffffffffffffffffffffffffffffffffffffffffffff1916815260200190815260200160002060000160149054906101000a90046bffffffffffffffffffffffff166bffffffffffffffffffffffff169050600060018360010160008773ffffffffffffffffffffffffffffffffffffffff1673ffffffffffffffffffffffffffffffffffffffff1681526020019081526020016000206000018054905061118391906121f9565b905080821461131b5760008360010160008773ffffffffffffffffffffffffffffffffffffffff1673ffffffffffffffffffffffffffffffffffffffff16815260200190815260200160002060000182815481106111e4576111e3611b82565b5b90600052602060002090600891828204019190066004029054906101000a900460e01b9050808460010160008873ffffffffffffffffffffffffffffffffffffffff1673ffffffffffffffffffffffffffffffffffffffff16815260200190815260200160002060000184815481106112605761125f611b82565b5b90600052602060002090600891828204019190066004026101000a81548163ffffffff021916908360e01c02179055508261ffff16846000016000837bffffffffffffffffffffffffffffffffffffffffffffffffffffffff19167bffffffffffffffffffffffffffffffffffffffffffffffffffffffff1916815260200190815260200160002060000160146101000a8154816bffffffffffffffffffffffff02191690836bffffffffffffffffffffffff160217905550505b8260010160008673ffffffffffffffffffffffffffffffffffffffff1673ffffffffffffffffffffffffffffffffffffffff16815260200190815260200160002060000180548061136f5761136e61222d565b5b60019003818190600052602060002090600891828204019190066004026101000a81549063ffffffff02191690559055826000016000857bffffffffffffffffffffffffffffffffffffffffffffffffffffffff19167bffffffffffffffffffffffffffffffffffffffffffffffffffffffff19168152602001908152602001600020600080820160006101000a81549073ffffffffffffffffffffffffffffffffffffffff02191690556000820160146101000a8154906bffffffffffffffffffffffff02191690555050600081036116325760006001846002018054905061145991906121f9565b905060008460010160008873ffffffffffffffffffffffffffffffffffffffff1673ffffffffffffffffffffffffffffffffffffffff16815260200190815260200160002060010154905081811461159e5760008560020183815481106114c3576114c2611b82565b5b9060005260206000200160009054906101000a900473ffffffffffffffffffffffffffffffffffffffff1690508086600201838154811061150757611506611b82565b5b9060005260206000200160006101000a81548173ffffffffffffffffffffffffffffffffffffffff021916908373ffffffffffffffffffffffffffffffffffffffff1602179055508161ffff168660010160008373ffffffffffffffffffffffffffffffffffffffff1673ffffffffffffffffffffffffffffffffffffffff16815260200190815260200160002060010181905550505b846002018054806115b2576115b161222d565b5b6001900381819060005260206000200160006101000a81549073ffffffffffffffffffffffffffffffffffffffff021916905590558460010160008873ffffffffffffffffffffffffffffffffffffffff1673ffffffffffffffffffffffffffffffffffffffff1681526020019081526020016000206001016000905550505b5050505050565b600082825260208201905092915050565b7f4469616d6f6e643a2046756e6374696f6e20646f6573206e6f74206578697374600082015250565b6000611680602083611639565b915061168b8261164a565b602082019050919050565b600060208201905081810360008301526116af81611673565b9050919050565b6000604051905090565b600080fd5b600080fd5b600073ffffffffffffffffffffffffffffffffffffffff82169050919050565b60006116f5826116ca565b9050919050565b611705816116ea565b811461171057600080fd5b50565b600081359050611722816116fc565b92915050565b600080fd5b6000601f19601f8301169050919050565b7f4e487b7100000000000000000000000000000000000000000000000000000000600052604160045260246000fd5b6117768261172d565b810181811067ffffffffffffffff821117156117955761179461173e565b5b80604052505050565b60006117a86116b6565b90506117b4828261176d565b919050565b600067ffffffffffffffff8211156117d4576117d361173e565b5b602082029050602081019050919050565b600080fd5b60007fffffffff0000000000000000000000000000000000000000000000000000000082169050919050565b61181f816117ea565b811461182a57600080fd5b50565b60008135905061183c81611816565b92915050565b6000611855611850846117b9565b61179e565b90508083825260208201905060208402830185811115611878576118776117e5565b5b835b818110156118a1578061188d888261182d565b84526020840193505060208101905061187a565b5050509392505050565b600082601f8301126118c0576118bf611728565b5b81356118d0848260208601611842565b91505092915050565b600080604083850312156118f0576118ef6116c0565b5b60006118fe85828601611713565b925050602083013567ffffffffffffffff81111561191f5761191e6116c5565b5b61192b858286016118ab565b9150509250929050565b600080fd5b6000604082840312156119505761194f611935565b5b81905092915050565b60006020828403121561196f5761196e6116c0565b5b600082013567ffffffffffffffff81111561198d5761198c6116c5565b5b6119998482850161193a565b91505092915050565b6119ab816116ea565b82525050565b60006020820190506119c660008301846119a2565b92915050565b7f4c69624469616d6f6e643a204d75737420626520636f6e7472616374206f776e60008201527f6572000000000000000000000000000000000000000000000000000000000000602082015250565b6000611a28602283611639565b9150611a33826119cc565b604082019050919050565b60006020820190508181036000830152611a5781611a1b565b9050919050565b7f4c69624469616d6f6e644375743a204e6f2073656c6563746f727320696e206660008201527f6163657420746f20637574000000000000000000000000000000000000000000602082015250565b6000611aba602b83611639565b9150611ac582611a5e565b604082019050919050565b60006020820190508181036000830152611ae981611aad565b9050919050565b7f4c69624469616d6f6e644375743a204164642066616365742063616e2774206260008201527f6520616464726573732830290000000000000000000000000000000000000000602082015250565b6000611b4c602c83611639565b9150611b5782611af0565b604082019050919050565b60006020820190508181036000830152611b7b81611b3f565b9050919050565b7f4e487b7100000000000000000000000000000000000000000000000000000000600052603260045260246000fd5b7f4c69624469616d6f6e644375743a2043616e2774206164642066756e6374696f60008201527f6e207468617420616c7265616479206578697374730000000000000000000000602082015250565b6000611c0d603583611639565b9150611c1882611bb1565b604082019050919050565b60006020820190508181036000830152611c3c81611c00565b9050919050565b7f4e487b7100000000000000000000000000000000000000000000000000000000600052601160045260246000fd5b600061ffff82169050919050565b6000611c8b82611c72565b915061ffff8203611c9f57611c9e611c43565b5b600182019050919050565b6000819050919050565b6000611cbf82611caa565b91507fffffffffffffffffffffffffffffffffffffffffffffffffffffffffffffffff8203611cf157611cf0611c43565b5b600182019050919050565b600060208284031215611d1257611d116116c0565b5b6000611d2084828501611713565b91505092915050565b600080fd5b600080fd5b600080fd5b60008083356001602003843603038112611d5557611d54611d29565b5b80840192508235915067ffffffffffffffff821115611d7757611d76611d2e565b5b602083019250602082023603831315611d9357611d92611d33565b5b509250929050565b60006bffffffffffffffffffffffff82169050919050565b6000611dbe82611d9b565b91506bffffffffffffffffffffffff8203611ddc57611ddb611c43565b5b600182019050919050565b6000611df66020840184611713565b905092915050565b611e07816116ea565b82525050565b600080fd5b600080fd5b600080fd5b60008083356001602003843603038112611e3957611e38611e17565b5b83810192508235915060208301925067ffffffffffffffff821115611e6157611e60611e0d565b5b602082023603831315611e7757611e76611e12565b5b509250929050565b600082825260208201905092915050565b6000819050919050565b611ea3816117ea565b82525050565b6000611eb58383611e9a565b60208301905092915050565b6000611ed0602084018461182d565b905092915050565b6000602082019050919050565b6000611ef18385611e7f565b9350611efc82611e90565b8060005b85811015611f3557611f128284611ec1565b611f1c8882611ea9565b9750611f2783611ed8565b925050600181019050611f00565b5085925050509392505050565b600060408301611f556000840184611de7565b611f626000860182611dfe565b50611f706020840184611e1c565b8583036020870152611f83838284611ee5565b925050508091505092915050565b60006020820190508181036000830152611fab8184611f42565b905092915050565b7f4c69624469616d6f6e644375743a2052656d6f7665206661636574206164647260008201527f657373206d757374206265206164647265737328302900000000000000000000602082015250565b600061200f603683611639565b915061201a82611fb3565b604082019050919050565b6000602082019050818103600083015261203e81612002565b9050919050565b600081519050919050565b60005b8381101561206e578082015181840152602081019050612053565b60008484015250505050565b600061208582612045565b61208f8185611639565b935061209f818560208601612050565b6120a88161172d565b840191505092915050565b600060208201905081810360008301526120cd818461207a565b905092915050565b7f4c69624469616d6f6e644375743a2043616e27742072656d6f76652066756e6360008201527f74696f6e207468617420646f65736e2774206578697374000000000000000000602082015250565b6000612131603783611639565b915061213c826120d5565b604082019050919050565b6000602082019050818103600083015261216081612124565b9050919050565b7f4c69624469616d6f6e644375743a2043616e27742072656d6f766520696d6d7560008201527f7461626c652066756e6374696f6e000000000000000000000000000000000000602082015250565b60006121c3602e83611639565b91506121ce82612167565b604082019050919050565b600060208201905081810360008301526121f2816121b6565b9050919050565b600061220482611caa565b915061220f83611caa565b925082820390508181111561222757612226611c43565b5b92915050565b7f4e487b7100000000000000000000000000000000000000000000000000000000600052603160045260246000fdfe4c69624469616d6f6e644375743a204e657720666163657420686173206e6f20636f6465a2646970667358221220774efd584c4aecac3ad2a17f0d4a5139ccaf85b3c463073cbb2a8a746fb4fe2564736f6c63430008140033",
  "linkReferences": {},
  "deployedLinkReferences": {}
}