{
  "_format": "hh-sol-artifact-1",
  "contractName": "FacetB",
  "sourceName": "src/facet/FacetB.sol",
  "abi": [
    {
      "inputs": [
        {
          "internalType": "string",
          "name": "_data",
          "type": "string"
        }
      ],
      "name": "addData",
      "outputs": [
        {
          "internalType": "bool",
          "name": "",
          "type": "bool"
        }
      ],
      "stateMutability": "nonpayable",
      "type": "function"
    },
    {
      "inputs": [],
      "name": "getData",
      "outputs": [
        {
          "internalType": "string",
          "name": "",
          "type": "string"
        }
      ],
      "stateMutability": "view",
      "type": "function"
    },
    {
      "inputs": [],
      "name": "getNum",
      "outputs": [
        {
          "internalType": "uint256",
          "name": "",
          "type": "uint256"
        }
      ],
      "stateMutability": "view",
      "type": "function"
    },
    {
      "inputs": [
        {
          "internalType": "uint256",
          "name": "_num",
          "type": "uint256"
        }
      ],
      "name": "sub",
      "outputs": [
        {
          "internalType": "bool",
          "name": "",
          "type": "bool"
        }
      ],
      "stateMutability": "nonpayable",
      "type": "function"
    }
  ],
  "bytecode": "0x608060405234801561001057600080fd5b506107c0806100206000396000f3fe608060405234801561001057600080fd5b506004361061004c5760003560e01c806327ee58a6146100515780633bc5de301461008157806367e0badb1461009f578063d4a2498d146100bd575b600080fd5b61006b60048036038101906100669190610283565b6100ed565b60405161007891906102cb565b60405180910390f35b6100896100ff565b6040516100969190610376565b60405180910390f35b6100a761019a565b6040516100b491906103a7565b60405180910390f35b6100d760048036038101906100d29190610427565b6101ad565b6040516100e491906102cb565b60405180910390f35b60006100f8826101c1565b9050919050565b60606101096101ea565b6001018054610117906104a3565b80601f0160208091040260200160405190810160405280929190818152602001828054610143906104a3565b80156101905780601f1061016557610100808354040283529160200191610190565b820191906000526020600020905b81548152906001019060200180831161017357829003601f168201915b5050505050905090565b60006101a46101ea565b60000154905090565b60006101b98383610217565b905092915050565b6000806101cc6101ea565b90508281600001600082825403925050819055506001915050919050565b6000807fd36a955b57b7801aa4e9524ad35b8083baeb8d9ae3fea31782d2f3a4896645a490508091505090565b6000806102226101ea565b905083838260010191826102379291906106ba565b50600191505092915050565b600080fd5b600080fd5b6000819050919050565b6102608161024d565b811461026b57600080fd5b50565b60008135905061027d81610257565b92915050565b60006020828403121561029957610298610243565b5b60006102a78482850161026e565b91505092915050565b60008115159050919050565b6102c5816102b0565b82525050565b60006020820190506102e060008301846102bc565b92915050565b600081519050919050565b600082825260208201905092915050565b60005b83811015610320578082015181840152602081019050610305565b60008484015250505050565b6000601f19601f8301169050919050565b6000610348826102e6565b61035281856102f1565b9350610362818560208601610302565b61036b8161032c565b840191505092915050565b60006020820190508181036000830152610390818461033d565b905092915050565b6103a18161024d565b82525050565b60006020820190506103bc6000830184610398565b92915050565b600080fd5b600080fd5b600080fd5b60008083601f8401126103e7576103e66103c2565b5b8235905067ffffffffffffffff811115610404576104036103c7565b5b6020830191508360018202830111156104205761041f6103cc565b5b9250929050565b6000806020838503121561043e5761043d610243565b5b600083013567ffffffffffffffff81111561045c5761045b610248565b5b610468858286016103d1565b92509250509250929050565b7f4e487b7100000000000000000000000000000000000000000000000000000000600052602260045260246000fd5b600060028204905060018216806104bb57607f821691505b6020821081036104ce576104cd610474565b5b50919050565b600082905092915050565b7f4e487b7100000000000000000000000000000000000000000000000000000000600052604160045260246000fd5b60008190508160005260206000209050919050565b60006020601f8301049050919050565b600082821b905092915050565b6000600883026105707fffffffffffffffffffffffffffffffffffffffffffffffffffffffffffffffff82610533565b61057a8683610533565b95508019841693508086168417925050509392505050565b6000819050919050565b60006105b76105b26105ad8461024d565b610592565b61024d565b9050919050565b6000819050919050565b6105d18361059c565b6105e56105dd826105be565b848454610540565b825550505050565b600090565b6105fa6105ed565b6106058184846105c8565b505050565b5b818110156106295761061e6000826105f2565b60018101905061060b565b5050565b601f82111561066e5761063f8161050e565b61064884610523565b81016020851015610657578190505b61066b61066385610523565b83018261060a565b50505b505050565b600082821c905092915050565b600061069160001984600802610673565b1980831691505092915050565b60006106aa8383610680565b9150826002028217905092915050565b6106c483836104d4565b67ffffffffffffffff8111156106dd576106dc6104df565b5b6106e782546104a3565b6106f282828561062d565b6000601f831160018114610721576000841561070f578287013590505b610719858261069e565b865550610781565b601f19841661072f8661050e565b60005b8281101561075757848901358255600182019150602085019450602081019050610732565b868310156107745784890135610770601f891682610680565b8355505b6001600288020188555050505b5050505050505056fea264697066735822122050b573b5f615668729244cffb56983e07519bbced1675abd7e180ef1d6baa2df64736f6c63430008140033",
  "linkReferences": {},
  "deployedLinkReferences": {}
}