{
  "_format": "hh-sol-artifact-1",
  "contractName": "FacetA",
  "sourceName": "src/facet/FacetA.sol",
  "abi": [
    {
      "inputs": [
        {
          "internalType": "uint256",
          "name": "_num",
          "type": "uint256"
        }
      ],
      "name": "add",
      "outputs": [
        {
          "internalType": "bool",
          "name": "",
          "type": "bool"
        }
      ],
      "stateMutability": "nonpayable",
      "type": "function"
    },
    {
      "inputs": [],
      "name": "getNum",
      "outputs": [
        {
          "internalType": "uint256",
          "name": "",
          "type": "uint256"
        }
      ],
      "stateMutability": "view",
      "type": "function"
    },
    {
      "inputs": [
        {
          "internalType": "uint256",
          "name": "_num",
          "type": "uint256"
        }
      ],
      "name": "multiply",
      "outputs": [
        {
          "internalType": "bool",
          "name": "",
          "type": "bool"
        }
      ],
      "stateMutability": "nonpayable",
      "type": "function"
    }
  ],
  "bytecode": "0x608060405234801561001057600080fd5b5061032f806100206000396000f3fe608060405234801561001057600080fd5b50600436106100415760003560e01c80631003e2d21461004657806367e0badb14610076578063c6888fa114610094575b600080fd5b610060600480360381019061005b91906101c7565b6100c4565b60405161006d919061020f565b60405180910390f35b61007e6100d6565b60405161008b9190610239565b60405180910390f35b6100ae60048036038101906100a991906101c7565b6100e9565b6040516100bb919061020f565b60405180910390f35b60006100cf826100fb565b9050919050565b60006100e061012d565b60000154905090565b60006100f48261015a565b9050919050565b60008061010661012d565b90508281600001600082825461011c9190610283565b925050819055506001915050919050565b6000807fd36a955b57b7801aa4e9524ad35b8083baeb8d9ae3fea31782d2f3a4896645a490508091505090565b60008061016561012d565b90508281600001600082825461017b91906102b7565b925050819055506001915050919050565b600080fd5b6000819050919050565b6101a481610191565b81146101af57600080fd5b50565b6000813590506101c18161019b565b92915050565b6000602082840312156101dd576101dc61018c565b5b60006101eb848285016101b2565b91505092915050565b60008115159050919050565b610209816101f4565b82525050565b60006020820190506102246000830184610200565b92915050565b61023381610191565b82525050565b600060208201905061024e600083018461022a565b92915050565b7f4e487b7100000000000000000000000000000000000000000000000000000000600052601160045260246000fd5b600061028e82610191565b915061029983610191565b92508282019050808211156102b1576102b0610254565b5b92915050565b60006102c282610191565b91506102cd83610191565b92508282026102db81610191565b915082820484148315176102f2576102f1610254565b5b509291505056fea264697066735822122035e664e11433feeaf83a159eb85998c0556ef121d83405babcaa1d23b15f7f6364736f6c63430008140033",
  "linkReferences": {},
  "deployedLinkReferences": {}
}